:020000040800F2
:10000000700600206D0100087501000877010008E6
:10001000790100087B0100087D0100080000000054
:100020000000000000000000000000007F01000848
:10003000810100080000000083010008850100081C
:100040008701000887010008870100088701000870
:100050008701000887010008870100088701000860
:100060008701000887010008870100088701000850
:100070008701000887010008870100088701000840
:100080008701000887010008870100088701000830
:100090008701000887010008870100088701000820
:1000A0008701000887010008870100088701000810
:1000B000A90C0008870100088701000887010008D3
:1000C00087010008870100088701000887010008F0
:1000D00087010008870100088701000887010008E0
:1000E00087010008870100088701000800F002F876
:1000F00000F02CF80AA090E8000C82448344AAF196
:100100000107DA4501D100F021F8AFF2090EBAE893
:100110000F0013F0010F18BFFB1A43F0010318473B
:10012000CC0E0000DC0E0000002300240025002679
:10013000103A28BF78C1FBD8520728BF30C148BF4A
:100140000B6070471FB51FBD10B510BD00F031F832
:100150001146FFF7F7FF00F0C1FE00F04FF803B4BF
:10016000FFF7F2FF03BC00F057F800000948804792
:1001700009480047FEE7FEE7FEE7FEE7FEE7FEE789
:10018000FEE7FEE7FEE7FEE704480549054A064BA1
:1001900070470000090C0008ED0000087000002006
:1001A0007006002070020020700200207047704727
:1001B0007047754600F02CF8AE4605006946534678
:1001C00020F00700854618B020B5FFF7DDFFBDE839
:1001D00020404FF000064FF000074FF000084FF0AE
:1001E000000BAC46ACE8C009ACE8C009ACE8C009FB
:1001F000ACE8C00921F007018D46704710B50446F0
:10020000AFF300802046BDE81040FFF7A8BF000014
:10021000004870470000002001491820ABBEFEE7EF
:10022000260002007047000082B0019001984FF450
:100230007A7148430090FFE740F26000C2F200008C
:1002400000680099884201D8FFE7F5E740F26001B5
:10025000C2F200010020086002B0704781B0009037
:10026000FFE740F26000C2F2000000680099013927
:10027000884201D8FFE7F4E740F26001C2F20001D2
:100280000020086001B0704781B08DF803009DF830
:100290000300012809D1FFE741F21801C4F202016D
:1002A000086840F00400086008E041F21801C4F258
:1002B0000201086820F004000860FFE701B0704701
:1002C00081B041F20401C4F20201086820F0030089
:1002D000086041F21401C4F20201086820F4805061
:1002E000086041F20001C4F20201086820F0807049
:1002F0000860086840F480300860FFE741F20000C1
:10030000C4F2020000688003002801D4FFE7F5E78B
:1003100041F22C01C4F20201086820F48030086028
:10032000086820F00F00086041F20401C4F20201E5
:100330000091086840F480300860086820F470106C
:100340000860086840F4E0100860086820F48060E5
:100350000860086840F480500860086820F4005085
:100360000860086820F0F0000860086840F00100AC
:10037000086041F20002C4F20202106820F001009D
:100380001060106840F080701060086820F07060A5
:100390000860086820F001000860086840F002006A
:1003A0000860FFE741F20400C4F2020000680007A1
:1003B000002801D4FFE7F5E701B0704780B584B0AD
:1003C0000020009003900120029000F051FC009862
:1003D0002821C4F2000108602C22C4F20002482146
:1003E00011602421C4F2000108600C21C4F2000154
:1003F000086840F0010008601021C4F2000108689C
:1004000020F0010008601C20019000F0F5F8019830
:10041000029900F025F9019800F008F90298039973
:1004200021F010010391039941F001010391039917
:100430004FF0804211601421C4F20001086004B042
:1004400080BD000080B5012000F026F94FF4FA606D
:10045000FFF704FF80BD0000B0B588B094468E461B
:1004600004460E980D990C9A8DF81F408DF81EE0E9
:100470008DF81DC08DF81C308DF81B208DF81A10DA
:100480008DF819009DF81F0040F26901C2F20001C9
:1004900008709DF81E0040F26A01C2F20001087067
:1004A0009DF81D0040F26801C2F2000108709DF83D
:1004B0001C0040F26401C2F2000108709DF81B00AC
:1004C00040F26501C2F2000108709DF81A0040F286
:1004D0006601C2F2000108709DF8190040F2670140
:1004E000C2F2000108703220FFF79EFE302001901A
:1004F00000F0D2F805200490FFF796FE019800F076
:10050000CBF801200390FFF78FFE019800F0C4F8AC
:100510000A200290FFF788FE202000F0BDF8029824
:10052000FFF782FE282000F0B7F84FF47A700590AC
:10053000FFF794FE039800F0AFF80498FFF774FEFD
:10054000062000F0A9F80598FFF788FE0C2000F0BF
:10055000A3F80598FFF782FE08B0B0BD80B582B061
:1005600001908DF8031000208DF802008DF8020034
:10057000FFE79DF802009DF80310884211DAFFE7BB
:1005800001989DF80210084400F0A2F84FF47A7028
:10059000FFF764FEFFE79DF8020001308DF80200CE
:1005A000E7E702B080BD000080B582B08DF807009B
:1005B0008DF806109DF807000146009120B1FFE775
:1005C0000098012807D00DE09DF8060040F080005B
:1005D0008DF8060006E09DF8060040F0C0008DF89A
:1005E0000600FFE79DF8060000F056F84FF47A7019
:1005F000FFF734FE02B080BD81B08DF803009DF995
:10060000031001EBD16020F01F028A1A012101FAC8
:1006100002F342114EF28021CEF2000151F8220085
:10062000184341F8220001B07047000081B08DF8F6
:1006300003009DF9031001EBD16020F01F028A1A1C
:10064000012101FA02F342114EF20011CEF2000133
:1006500051F82200184341F8220001B07047000011
:1006600081B08DF803008DF802109DF802009DF90D
:10067000032002EB927121F00301521AD2000432DE
:1006800000FA02F34EF20042CEF2000288581843FC
:10069000885001B07047000080B584B08DF80F001D
:1006A0009DF80F0000098DF80E000DF10E0001906D
:1006B0000021029100F028F8019802999DF80F207E
:1006C00002F00F028DF80E2000F01EF804B080BD7D
:1006D00080B584B003900398007800098DF80B0072
:1006E0000DF10B0000900121019100F00DF8009830
:1006F0000199039A127802F00F028DF80B2000F096
:1007000003F804B080BD000080B586B005908DF878
:100710001310002002908DF8120040F26900C2F21E
:1007200000000090007840F26A01C2F200010978EE
:100730009DF8132000F0C8FA009805990978C1F3D4
:10074000C0018DF81210007840F26701C2F200017A
:1007500009789DF8122000F0B7FA009805990978F9
:10076000C1F380018DF81210007840F26601C2F2E8
:10077000000109789DF8122000F0A6FA009805996A
:100780000978C1F340018DF81210007840F265013C
:10079000C2F2000109789DF8122000F095FA009845
:1007A0000599097801F001018DF81210007840F2E6
:1007B0006401C2F2000109789DF8122000F084FA69
:1007C00032200390FFF74AFD0098007840F268015C
:1007D000C2F2000101910978012200F075FA039834
:1007E000FFF73CFD00980199029A0078097800F023
:1007F0006BFA0398FFF732FD06B080BD82B001901E
:100800008DF803108DF802208DF801309DF803104B
:10081000032000FA01F3019A1168194311609DF851
:10082000021000FA01F201990868904308609DF8EF
:10083000010001280AD1FFE79DF80210012000FA0B
:1008400001F2019908681043086020E09DF801005A
:1008500002280AD1FFE79DF80210022000FA01F2F7
:10086000019908681043086010E09DF80100032812
:100870000AD1FFE79DF80210032000FA01F2019966
:1008800008681043086000E0FFE7FFE7FFE702B0F9
:100890007047000080B582B08DF807008DF8061013
:1008A0008DF805209DF80600072800F38980FFE7F2
:1008B0009DF8060080008DF804009DF804000230C9
:1008C0008DF803009DF8070068B9FFE79DF8041054
:1008D0009DF803209DF8053040F60000C4F20100A9
:1008E000FFF78CFF6BE09DF8070001280DD1FFE7B3
:1008F0009DF804109DF803209DF8053040F6004057
:10090000C4F20100FFF77AFF58E09DF807000228C3
:100910000DD1FFE79DF804109DF803209DF80530E8
:1009200041F20000C4F20100FFF768FF45E09DF8C6
:10093000070003280DD1FFE79DF804109DF8032060
:100940009DF8053041F20040C4F20100FFF756FF68
:1009500032E09DF8070004280DD1FFE79DF8041050
:100960009DF803209DF8053041F60000C4F2010017
:10097000FFF744FF1FE09DF8070005280DD1FFE7B2
:100980009DF804109DF803209DF8053041F60040C5
:10099000C4F20100FFF732FF0CE09DF804109DF84F
:1009A00003209DF8053042F20000C4F20100FFF779
:1009B00025FFFFE7FFE7FFE7FFE7FFE7FFE78AE045
:1009C0009DF806106FF01F0000EB81008DF802000B
:1009D0009DF8020002308DF801009DF8070068B90B
:1009E000FFE79DF802109DF801209DF8053040F6C4
:1009F0000400C4F20100FFF701FF6BE09DF807005F
:100A000001280DD1FFE79DF802109DF801209DF807
:100A1000053040F60440C4F20100FFF7EFFE58E055
:100A20009DF8070002280DD1FFE79DF802109DF800
:100A300001209DF8053041F20400C4F20100FFF7E7
:100A4000DDFE45E09DF8070003280DD1FFE79DF886
:100A500002109DF801209DF8053041F20440C4F2D7
:100A60000100FFF7CBFE32E09DF8070004280DD10E
:100A7000FFE79DF802109DF801209DF8053041F632
:100A80000400C4F20100FFF7B9FE1FE09DF8070063
:100A900005280DD1FFE79DF802109DF801209DF873
:100AA000053041F60440C4F20100FFF7A7FE0CE058
:100AB0009DF802109DF801209DF8053042F20400D7
:100AC000C4F20100FFF79AFEFFE7FFE7FFE7FFE749
:100AD000FFE7FFE7FFE702B080BD000080B500F050
:100AE00001F880BD84B000200390029041F2000123
:100AF000C4F20201086840F480300860FFE741F268
:100B00000000C4F20200006800F400300290039874
:100B100001300390FFE702990020019039B9FFE707
:100B20000398B0F5A06018BF01200190FFE701987D
:100B3000C0070028E3D1FFE741F20000C4F2020041
:100B400000688003002803D5FFE70120029002E03F
:100B500000200290FFE70298012851D1FFE742F2FE
:100B60000001C4F20201086840F010000860086843
:100B700020F007000860086840F00200086041F2B9
:100B80000401C4F202010091086808600868086066
:100B9000086840F480600860086820F47C100860F1
:100BA000086840F4E810086041F20001C4F2020154
:100BB000086840F080700860FFE741F20000C4F26E
:100BC000020000688001002801D4FFE7F5E741F248
:100BD0000401C4F20201086820F0030008600868FC
:100BE00040F002000860FFE741F20400C4F2020096
:100BF000006800F00C00082801D0FFE7F4E700E0EF
:100C0000FFE704B07047000080B541F20002C4F273
:100C10000202106840F00100106041F20401C4F2C9
:100C2000020108680023CFF6FF031840086010682F
:100C30004FF6FF73CFF6F66318401060106820F48B
:100C400080201060086820F4FE00086041F208016E
:100C5000C4F202014FF41F000860FFF73FFF4EF699
:100C60000851CEF200014FF00060086080BD000026
:100C700081B08DF803009DF80300012809D1FFE73A
:100C800041F21C01C4F20201086840F00100086052
:100C900008E041F21C01C4F20201086820F00100E2
:100CA0000860FFE701B070471021C4F20001086836
:100CB00020F00100086040F26001C2F20001086803
:100CC000013008607047000081B08DF803008DF896
:100CD00002108DF801209DF8010001287ED1FFE768
:100CE0009DF8030068B9FFE79DF80210012000FAA3
:100CF00001F240F60C01C4F20101086810430860DB
:100D00006BE09DF8030001280DD1FFE79DF802106C
:100D1000012000FA01F240F60C41C4F2010108681A
:100D20001043086058E09DF8030002280DD1FFE74A
:100D30009DF80210012000FA01F241F20C01C4F208
:100D4000010108681043086045E09DF8030003288E
:100D50000DD1FFE79DF80210012000FA01F241F2E7
:100D60000C41C4F2010108681043086032E09DF8AC
:100D7000030004280DD1FFE79DF80210012000FABE
:100D800001F241F60C01C4F2010108681043086049
:100D90001FE09DF8030005280DD1FFE79DF8021024
:100DA000012000FA01F241F60C41C4F20101086889
:100DB000104308600CE09DF80210012000FA01F2D7
:100DC00042F20C01C4F20101086810430860FFE719
:100DD000FFE7FFE7FFE7FFE7FFE77DE09DF80300A0
:100DE00068B9FFE79DF80210012000FA01F240F611
:100DF0000C01C4F201010868904308606BE09DF8A3
:100E0000030001280DD1FFE79DF80210012000FA30
:100E100001F240F60C41C4F20101086890430860F9
:100E200058E09DF8030002280DD1FFE79DF802105D
:100E3000012000FA01F241F20C01C4F2010108683C
:100E40009043086045E09DF8030003280DD1FFE7BB
:100E50009DF80210012000FA01F241F20C41C4F2A7
:100E6000010108689043086032E09DF803000428FF
:100E70000DD1FFE79DF80210012000FA01F241F6C2
:100E80000C01C4F201010868904308601FE09DF85E
:100E9000030005280DD1FFE79DF80210012000FA9C
:100EA00001F241F60C41C4F2010108689043086068
:100EB0000CE09DF80210012000FA01F242F20C0150
:100EC000C4F20101086890430860FFE7FFE7FFE70D
:100ED000FFE7FFE7FFE7FFE701B0704710B58CB011
:100EE000002007900B90FFF7EBF9FFF767FA01205E
:100EF0000890FFF7C9F9079A10461146FFF7CAFC98
:100F0000079A08991046FFF7C5FC079A0221099134
:100F10001046FFF7BFFC079A032106911046FFF722
:100F2000B9FC079A04210A911046FFF7B3FC079A0F
:100F3000052410462146FFF7ADFC06980799089A4C
:100F4000099BDDF828E0EC46CCF80840CCF804E03A
:100F5000CCF800000846FFF77FFAFFE7FFF772FAC8
:100F60000020049001210391FFF71EFB40F6D07092
:100F7000C0F600000821FFF7F1FA40F6B8300590FE
:100F8000FFF752F9FFF75EFA03980521FFF70CFB14
:100F900040F6C670C0F600000921FFF7DFFA059899
:100FA000FFF742F9FFF74EFA03980499FFF7FCFAAE
:100FB00040F6D970C0F600000F21FFF7CFFA059870
:100FC000FFF732F9CAE73938373635343332310072
:100FD00041424331323334350054455354204C455B
:100FE000442D3E204D454E5500000000FC0F0008EA
:0C0FF0000000002070060000280100082E
:04000005080000ED02
:00000001FF
